{
  "abi": [
    {
      "inputs": [
        {
          "internalType": "address",
          "name": "_makerToken",
          "type": "address"
        },
        {
          "internalType": "address",
          "name": "_takerToken",
          "type": "address"
        }
      ],
      "stateMutability": "nonpayable",
      "type": "constructor"
    },
    {
      "inputs": [
        {
          "components": [
            {
              "internalType": "address",
              "name": "makerToken",
              "type": "address"
            },
            {
              "internalType": "address",
              "name": "takerToken",
              "type": "address"
            },
            {
              "internalType": "uint128",
              "name": "makerAmount",
              "type": "uint128"
            },
            {
              "internalType": "uint128",
              "name": "takerAmount",
              "type": "uint128"
            },
            {
              "internalType": "uint128",
              "name": "takerTokenFeeAmount",
              "type": "uint128"
            },
            {
              "internalType": "address",
              "name": "maker",
              "type": "address"
            },
            {
              "internalType": "address",
              "name": "taker",
              "type": "address"
            },
            {
              "internalType": "address",
              "name": "sender",
              "type": "address"
            },
            {
              "internalType": "address",
              "name": "feeRecipient",
              "type": "address"
            },
            {
              "internalType": "bytes32",
              "name": "pool",
              "type": "bytes32"
            },
            {
              "internalType": "uint64",
              "name": "expiry",
              "type": "uint64"
            },
            {
              "internalType": "uint256",
              "name": "salt",
              "type": "uint256"
            }
          ],
          "internalType": "struct IExchange.LimitOrder",
          "name": "order",
          "type": "tuple"
        },
        {
          "internalType": "uint128",
          "name": "takerAssetAmount",
          "type": "uint128"
        },
        {
          "components": [
            {
              "internalType": "uint8",
              "name": "signatureType",
              "type": "uint8"
            },
            {
              "internalType": "uint8",
              "name": "v",
              "type": "uint8"
            },
            {
              "internalType": "bytes32",
              "name": "r",
              "type": "bytes32"
            },
            {
              "internalType": "bytes32",
              "name": "s",
              "type": "bytes32"
            }
          ],
          "internalType": "struct IExchange.Signature",
          "name": "signature",
          "type": "tuple"
        }
      ],
      "name": "fillOrder",
      "outputs": [
        {
          "internalType": "uint128",
          "name": "makerTokenFillAmount",
          "type": "uint128"
        }
      ],
      "stateMutability": "payable",
      "type": "function"
    }
  ],
  "bytecode": {
    "object": "0x6080604052600080546001600160a01b03191673f471d32cb40837bf24529fcf17418fc1a480762617905534801561003657600080fd5b50604051610631380380610631833981016040819052610055916100a2565b600180546001600160a01b039384166001600160a01b031991821617909155600280549290931691161790556100d5565b80516001600160a01b038116811461009d57600080fd5b919050565b600080604083850312156100b557600080fd5b6100be83610086565b91506100cc60208401610086565b90509250929050565b61054d806100e46000396000f3fe60806040526004361061001e5760003560e01c8063c3db748814610023575b600080fd5b6100366100313660046102bf565b610052565b6040516001600160801b03909116815260200160405180910390f35b6002546040516323b872dd60e01b81523360048201523060248201526001600160801b03841660448201526000916001600160a01b0316906323b872dd906064016020604051808303816000875af11580156100b2573d6000803e3d6000fd5b505050506040513d601f19601f820116820180604052508101906100d69190610319565b5060025460005460405163095ea7b360e01b81526001600160a01b0391821660048201526001600160801b038616602482015291169063095ea7b3906044016020604051808303816000875af1158015610134573d6000803e3d6000fd5b505050506040513d601f19601f820116820180604052508101906101589190610319565b50600054604051637b13a7b360e11b81526001600160a01b039091169063f6274f669061018d908790869088906004016103b2565b6020604051808303816000875af11580156101ac573d6000803e3d6000fd5b505050506040513d601f19601f820116820180604052508101906101d091906104fa565b60015460405163a9059cbb60e01b81523360048201526001600160801b03831660248201529192506001600160a01b03169063a9059cbb906044016020604051808303816000875af115801561022a573d6000803e3d6000fd5b505050506040513d601f19601f8201168201806040525081019061024e9190610319565b6102905760405162461bcd60e51b815260206004820152600f60248201526e1d1c985b9cd9995c8819985a5b1959608a1b604482015260640160405180910390fd5b9392505050565b6001600160801b03811681146102ac57600080fd5b50565b80356102ba81610297565b919050565b60008060008385036102208112156102d657600080fd5b610180808212156102e657600080fd5b8594508401356102f581610297565b9250608061019f198201121561030a57600080fd5b506101a0840190509250925092565b60006020828403121561032b57600080fd5b8151801515811461029057600080fd5b80356001600160a01b03811681146102ba57600080fd5b803567ffffffffffffffff811681146102ba57600080fd5b803560ff811681146102ba57600080fd5b60ff6103868261036a565b16825260ff6103976020830161036a565b16602083015260408181013590830152606090810135910152565b61022081016103d1826103c48761033b565b6001600160a01b03169052565b6103dd6020860161033b565b6001600160a01b031660208301526103f7604086016102af565b6001600160801b03166040830152610411606086016102af565b6001600160801b0316606083015261042b608086016102af565b6001600160801b0316608083015261044560a0860161033b565b6001600160a01b031660a083015261045f60c0860161033b565b6001600160a01b031660c083015261047960e0860161033b565b6001600160a01b031660e083015261010061049586820161033b565b6001600160a01b03169083015261012085810135908301526101406104bb818701610352565b67ffffffffffffffff169083015261016085810135908301526104e261018083018561037b565b6001600160801b038316610200830152949350505050565b60006020828403121561050c57600080fd5b81516102908161029756fea2646970667358221220597616057d1ceae9f2130750ba2f678b9e3f0749fe46c902c3ab429fda3a7c7d64736f6c63430008110033",
    "linkReferences": {}
  },
  "methodIdentifiers": {
    "fillOrder((address,address,uint128,uint128,uint128,address,address,address,address,bytes32,uint64,uint256),uint128,(uint8,uint8,bytes32,bytes32))": "c3db7488"
  },
  "id": 14
}