{
  "abi": [
    {
      "anonymous": false,
      "inputs": [
        {
          "indexed": true,
          "internalType": "address",
          "name": "owner",
          "type": "address"
        },
        {
          "indexed": true,
          "internalType": "address",
          "name": "spender",
          "type": "address"
        },
        {
          "indexed": false,
          "internalType": "uint256",
          "name": "value",
          "type": "uint256"
        }
      ],
      "name": "Approval",
      "type": "event"
    },
    {
      "anonymous": false,
      "inputs": [
        {
          "indexed": false,
          "internalType": "address",
          "name": "monetaryPolicy",
          "type": "address"
        }
      ],
      "name": "LogMonetaryPolicyUpdated",
      "type": "event"
    },
    {
      "anonymous": false,
      "inputs": [
        {
          "indexed": true,
          "internalType": "uint256",
          "name": "epoch",
          "type": "uint256"
        },
        {
          "indexed": false,
          "internalType": "uint256",
          "name": "totalSupply",
          "type": "uint256"
        }
      ],
      "name": "LogRebase",
      "type": "event"
    },
    {
      "anonymous": false,
      "inputs": [
        {
          "indexed": true,
          "internalType": "address",
          "name": "previousOwner",
          "type": "address"
        }
      ],
      "name": "OwnershipRenounced",
      "type": "event"
    },
    {
      "anonymous": false,
      "inputs": [
        {
          "indexed": true,
          "internalType": "address",
          "name": "previousOwner",
          "type": "address"
        },
        {
          "indexed": true,
          "internalType": "address",
          "name": "newOwner",
          "type": "address"
        }
      ],
      "name": "OwnershipTransferred",
      "type": "event"
    },
    {
      "anonymous": false,
      "inputs": [
        {
          "indexed": true,
          "internalType": "address",
          "name": "from",
          "type": "address"
        },
        {
          "indexed": true,
          "internalType": "address",
          "name": "to",
          "type": "address"
        },
        {
          "indexed": false,
          "internalType": "uint256",
          "name": "value",
          "type": "uint256"
        }
      ],
      "name": "Transfer",
      "type": "event"
    },
    {
      "inputs": [],
      "name": "DOMAIN_SEPARATOR",
      "outputs": [
        {
          "internalType": "bytes32",
          "name": "",
          "type": "bytes32"
        }
      ],
      "stateMutability": "view",
      "type": "function"
    },
    {
      "inputs": [],
      "name": "EIP712_DOMAIN",
      "outputs": [
        {
          "internalType": "bytes32",
          "name": "",
          "type": "bytes32"
        }
      ],
      "stateMutability": "view",
      "type": "function"
    },
    {
      "inputs": [],
      "name": "EIP712_REVISION",
      "outputs": [
        {
          "internalType": "string",
          "name": "",
          "type": "string"
        }
      ],
      "stateMutability": "view",
      "type": "function"
    },
    {
      "inputs": [],
      "name": "PERMIT_TYPEHASH",
      "outputs": [
        {
          "internalType": "bytes32",
          "name": "",
          "type": "bytes32"
        }
      ],
      "stateMutability": "view",
      "type": "function"
    },
    {
      "inputs": [
        {
          "internalType": "address",
          "name": "owner_",
          "type": "address"
        },
        {
          "internalType": "address",
          "name": "spender",
          "type": "address"
        }
      ],
      "name": "allowance",
      "outputs": [
        {
          "internalType": "uint256",
          "name": "",
          "type": "uint256"
        }
      ],
      "stateMutability": "view",
      "type": "function"
    },
    {
      "inputs": [
        {
          "internalType": "address",
          "name": "spender",
          "type": "address"
        },
        {
          "internalType": "uint256",
          "name": "value",
          "type": "uint256"
        }
      ],
      "name": "approve",
      "outputs": [
        {
          "internalType": "bool",
          "name": "",
          "type": "bool"
        }
      ],
      "stateMutability": "nonpayable",
      "type": "function"
    },
    {
      "inputs": [
        {
          "internalType": "address",
          "name": "who",
          "type": "address"
        }
      ],
      "name": "balanceOf",
      "outputs": [
        {
          "internalType": "uint256",
          "name": "",
          "type": "uint256"
        }
      ],
      "stateMutability": "view",
      "type": "function"
    },
    {
      "inputs": [],
      "name": "decimals",
      "outputs": [
        {
          "internalType": "uint8",
          "name": "",
          "type": "uint8"
        }
      ],
      "stateMutability": "view",
      "type": "function"
    },
    {
      "inputs": [
        {
          "internalType": "address",
          "name": "spender",
          "type": "address"
        },
        {
          "internalType": "uint256",
          "name": "subtractedValue",
          "type": "uint256"
        }
      ],
      "name": "decreaseAllowance",
      "outputs": [
        {
          "internalType": "bool",
          "name": "",
          "type": "bool"
        }
      ],
      "stateMutability": "nonpayable",
      "type": "function"
    },
    {
      "inputs": [
        {
          "internalType": "address",
          "name": "spender",
          "type": "address"
        },
        {
          "internalType": "uint256",
          "name": "addedValue",
          "type": "uint256"
        }
      ],
      "name": "increaseAllowance",
      "outputs": [
        {
          "internalType": "bool",
          "name": "",
          "type": "bool"
        }
      ],
      "stateMutability": "nonpayable",
      "type": "function"
    },
    {
      "inputs": [
        {
          "internalType": "string",
          "name": "name",
          "type": "string"
        },
        {
          "internalType": "string",
          "name": "symbol",
          "type": "string"
        },
        {
          "internalType": "uint8",
          "name": "decimals",
          "type": "uint8"
        }
      ],
      "name": "initialize",
      "outputs": [],
      "stateMutability": "nonpayable",
      "type": "function"
    },
    {
      "inputs": [
        {
          "internalType": "address",
          "name": "owner_",
          "type": "address"
        }
      ],
      "name": "initialize",
      "outputs": [],
      "stateMutability": "nonpayable",
      "type": "function"
    },
    {
      "inputs": [],
      "name": "isOwner",
      "outputs": [
        {
          "internalType": "bool",
          "name": "",
          "type": "bool"
        }
      ],
      "stateMutability": "view",
      "type": "function"
    },
    {
      "inputs": [],
      "name": "monetaryPolicy",
      "outputs": [
        {
          "internalType": "address",
          "name": "",
          "type": "address"
        }
      ],
      "stateMutability": "view",
      "type": "function"
    },
    {
      "inputs": [],
      "name": "name",
      "outputs": [
        {
          "internalType": "string",
          "name": "",
          "type": "string"
        }
      ],
      "stateMutability": "view",
      "type": "function"
    },
    {
      "inputs": [
        {
          "internalType": "address",
          "name": "who",
          "type": "address"
        }
      ],
      "name": "nonces",
      "outputs": [
        {
          "internalType": "uint256",
          "name": "",
          "type": "uint256"
        }
      ],
      "stateMutability": "view",
      "type": "function"
    },
    {
      "inputs": [],
      "name": "owner",
      "outputs": [
        {
          "internalType": "address",
          "name": "",
          "type": "address"
        }
      ],
      "stateMutability": "view",
      "type": "function"
    },
    {
      "inputs": [
        {
          "internalType": "address",
          "name": "owner",
          "type": "address"
        },
        {
          "internalType": "address",
          "name": "spender",
          "type": "address"
        },
        {
          "internalType": "uint256",
          "name": "value",
          "type": "uint256"
        },
        {
          "internalType": "uint256",
          "name": "deadline",
          "type": "uint256"
        },
        {
          "internalType": "uint8",
          "name": "v",
          "type": "uint8"
        },
        {
          "internalType": "bytes32",
          "name": "r",
          "type": "bytes32"
        },
        {
          "internalType": "bytes32",
          "name": "s",
          "type": "bytes32"
        }
      ],
      "name": "permit",
      "outputs": [],
      "stateMutability": "nonpayable",
      "type": "function"
    },
    {
      "inputs": [
        {
          "internalType": "uint256",
          "name": "epoch",
          "type": "uint256"
        },
        {
          "internalType": "int256",
          "name": "supplyDelta",
          "type": "int256"
        }
      ],
      "name": "rebase",
      "outputs": [
        {
          "internalType": "uint256",
          "name": "",
          "type": "uint256"
        }
      ],
      "stateMutability": "nonpayable",
      "type": "function"
    },
    {
      "inputs": [],
      "name": "renounceOwnership",
      "outputs": [],
      "stateMutability": "nonpayable",
      "type": "function"
    },
    {
      "inputs": [
        {
          "internalType": "address",
          "name": "who",
          "type": "address"
        }
      ],
      "name": "scaledBalanceOf",
      "outputs": [
        {
          "internalType": "uint256",
          "name": "",
          "type": "uint256"
        }
      ],
      "stateMutability": "view",
      "type": "function"
    },
    {
      "inputs": [],
      "name": "scaledTotalSupply",
      "outputs": [
        {
          "internalType": "uint256",
          "name": "",
          "type": "uint256"
        }
      ],
      "stateMutability": "pure",
      "type": "function"
    },
    {
      "inputs": [
        {
          "internalType": "address",
          "name": "monetaryPolicy_",
          "type": "address"
        }
      ],
      "name": "setMonetaryPolicy",
      "outputs": [],
      "stateMutability": "nonpayable",
      "type": "function"
    },
    {
      "inputs": [],
      "name": "symbol",
      "outputs": [
        {
          "internalType": "string",
          "name": "",
          "type": "string"
        }
      ],
      "stateMutability": "view",
      "type": "function"
    },
    {
      "inputs": [],
      "name": "totalSupply",
      "outputs": [
        {
          "internalType": "uint256",
          "name": "",
          "type": "uint256"
        }
      ],
      "stateMutability": "view",
      "type": "function"
    },
    {
      "inputs": [
        {
          "internalType": "address",
          "name": "to",
          "type": "address"
        },
        {
          "internalType": "uint256",
          "name": "value",
          "type": "uint256"
        }
      ],
      "name": "transfer",
      "outputs": [
        {
          "internalType": "bool",
          "name": "",
          "type": "bool"
        }
      ],
      "stateMutability": "nonpayable",
      "type": "function"
    },
    {
      "inputs": [
        {
          "internalType": "address",
          "name": "to",
          "type": "address"
        }
      ],
      "name": "transferAll",
      "outputs": [
        {
          "internalType": "bool",
          "name": "",
          "type": "bool"
        }
      ],
      "stateMutability": "nonpayable",
      "type": "function"
    },
    {
      "inputs": [
        {
          "internalType": "address",
          "name": "from",
          "type": "address"
        },
        {
          "internalType": "address",
          "name": "to",
          "type": "address"
        }
      ],
      "name": "transferAllFrom",
      "outputs": [
        {
          "internalType": "bool",
          "name": "",
          "type": "bool"
        }
      ],
      "stateMutability": "nonpayable",
      "type": "function"
    },
    {
      "inputs": [
        {
          "internalType": "address",
          "name": "from",
          "type": "address"
        },
        {
          "internalType": "address",
          "name": "to",
          "type": "address"
        },
        {
          "internalType": "uint256",
          "name": "value",
          "type": "uint256"
        }
      ],
      "name": "transferFrom",
      "outputs": [
        {
          "internalType": "bool",
          "name": "",
          "type": "bool"
        }
      ],
      "stateMutability": "nonpayable",
      "type": "function"
    },
    {
      "inputs": [
        {
          "internalType": "address",
          "name": "newOwner",
          "type": "address"
        }
      ],
      "name": "transferOwnership",
      "outputs": [],
      "stateMutability": "nonpayable",
      "type": "function"
    }
  ],
  "bytecode": {
    "object": "0x608060405234801561001057600080fd5b50611987806100206000396000f3fe608060405234801561001057600080fd5b50600436106101da5760003560e01c806384d4b41011610104578063a457c2d7116100a2578063d505accf11610071578063d505accf1461041e578063dd62ed3e14610431578063e1b11da41461046a578063f2fde38b1461049157600080fd5b8063a457c2d7146103dd578063a9059cbb146103f0578063b1bf962d14610403578063c4d66de81461040b57600080fd5b80638e27d7d7116100de5780638e27d7d71461039c5780638f32d59b146103af57806395d89b41146103c2578063a3a7e7f3146103ca57600080fd5b806384d4b410146103515780638b5a6a08146103645780638da5cb5b1461037757600080fd5b8063313ce5671161017c578063715018a61161014b578063715018a6146102ed57806378160376146102f55780637a43e23f146103155780637ecebe001461032857600080fd5b8063313ce567146102aa5780633644e515146102bf57806339509351146102c757806370a08231146102da57600080fd5b806318160ddd116101b857806318160ddd146102355780631da24f3e1461024757806323b872dd1461027057806330adf81f1461028357600080fd5b806306fdde03146101df578063095ea7b3146101fd5780631624f6c614610220575b600080fd5b6101e76104a4565b6040516101f49190611311565b60405180910390f35b61021061020b36600461137b565b610536565b60405190151581526020016101f4565b61023361022e366004611459565b610591565b005b609c545b6040519081526020016101f4565b6102396102553660046114cd565b6001600160a01b03166000908152609e602052604090205490565b61021061027e3660046114e8565b61063e565b6102397f6e71edae12b1b97f4d1f60370fef10105fa2faae0126114a169c64845d6126c981565b60355460405160ff90911681526020016101f4565b610239610777565b6102106102d536600461137b565b610823565b6102396102e83660046114cd565b610896565b6102336108be565b6101e7604051806040016040528060018152602001603160f81b81525081565b610239610323366004611524565b61091f565b6102396103363660046114cd565b6001600160a01b0316600090815260a0602052604090205490565b61021061035f366004611546565b610a5e565b6102336103723660046114cd565b610b6d565b6068546001600160a01b03165b6040516001600160a01b0390911681526020016101f4565b609b54610384906001600160a01b031681565b6068546001600160a01b03163314610210565b6101e7610bd8565b6102106103d83660046114cd565b610be7565b6102106103eb36600461137b565b610cb6565b6102106103fe36600461137b565b610d46565b610239610e23565b6102336104193660046114cd565b610e5c565b61023361042c366004611579565b610fdf565b61023961043f366004611546565b6001600160a01b039182166000908152609f6020908152604080832093909416825291909152205490565b6102397f8b73c3c69bb8fe3d512ecc4cf759cc79239f7b179b0ffacaa9a75d522b39400f81565b61023361049f3660046114cd565b61119b565b6060603380546104b3906115e3565b80601f01602080910402602001604051908101604052809291908181526020018280546104df906115e3565b801561052c5780601f106105015761010080835404028352916020019161052c565b820191906000526020600020905b81548152906001019060200180831161050f57829003601f168201915b5050505050905090565b336000818152609f602090815260408083206001600160a01b038716808552925280832085905551919290916000805160206119328339815191529061057f9086815260200190565b60405180910390a35060015b92915050565b600054610100900460ff16806105a65750303b155b806105b4575060005460ff16155b6105d95760405162461bcd60e51b81526004016105d090611617565b60405180910390fd5b6000805461ffff19811661010117909155610100900460ff1660336105fe85826116b4565b50603461060b84826116b4565b506035805460ff90931660ff1990931692909217909155600080549115156101000261ff00199092169190911790555050565b6000826001600160a01b03811661065457600080fd5b306001600160a01b0382160361066957600080fd5b6001600160a01b0385166000908152609f6020908152604080832033845290915290205461069790846111be565b6001600160a01b0386166000908152609f60209081526040808320338452909152812091909155609d546106cc9085906111d1565b6001600160a01b0387166000908152609e60205260409020549091506106f290826111be565b6001600160a01b038088166000908152609e6020526040808220939093559087168152205461072190826111dd565b6001600160a01b038087166000818152609e60205260409081902093909355915190881690600080516020611912833981519152906107639088815260200190565b60405180910390a350600195945050505050565b6000467f8b73c3c69bb8fe3d512ecc4cf759cc79239f7b179b0ffacaa9a75d522b39400f6107a36104a4565b805160209182012060408051808201825260018152603160f81b90840152805192830193909352918101919091527fc89efdaa54c0f20c7adf612882df0950f5a951637e0307cdcb4c672f298b8bc66060820152608081018290523060a082015260c0016040516020818303038152906040528051906020012091505090565b336000908152609f602090815260408083206001600160a01b038616845290915281205461085190836111dd565b336000818152609f602090815260408083206001600160a01b03891680855290835292819020859055519384529092600080516020611932833981519152910161057f565b609d546001600160a01b0382166000908152609e6020526040812054909161058b91906111e9565b6068546001600160a01b031633146108d557600080fd5b6068546040516001600160a01b03909116907ff8df31144d9c2f0f6b59d69b8b98abd5459d07f2742c4df920b25aae33c6482090600090a2606880546001600160a01b0319169055565b609b546000906001600160a01b0316331461093957600080fd5b8160000361098657827f72725a3b1e5bd622d6bcd1339bb31279c351abe8f541ac7fd320f24e1b1641f2609c5460405161097591815260200190565b60405180910390a250609c5461058b565b60008212156109ac576109a461099b836111f5565b609c54906111be565b609c556109bd565b609c546109b990836111dd565b609c555b609c546001600160801b0310156109da576001600160801b03609c555b609c54610a19906109ed6009600a61186e565b6109fb906302faf08061187a565b610a07906000196118a7565b610a13906000196118bb565b906111e9565b609d55609c5460405190815283907f72725a3b1e5bd622d6bcd1339bb31279c351abe8f541ac7fd320f24e1b1641f29060200160405180910390a250609c5492915050565b6000816001600160a01b038116610a7457600080fd5b306001600160a01b03821603610a8957600080fd5b6001600160a01b0384166000908152609e6020526040812054609d54909190610ab39083906111e9565b6001600160a01b0387166000908152609f60209081526040808320338452909152902054909150610ae490826111be565b6001600160a01b038088166000818152609f60209081526040808320338452825280832095909555918152609e90915282812081905590871681522054610b2b90836111dd565b6001600160a01b038087166000818152609e60205260409081902093909355915190881690600080516020611912833981519152906107639085815260200190565b6068546001600160a01b03163314610b8457600080fd5b609b80546001600160a01b0319166001600160a01b0383169081179091556040519081527f0e6961f1a1afb87eaf51fd64f22ddc10062e23aa7838eac5d0bdf140bfd389729060200160405180910390a150565b6060603480546104b3906115e3565b6000816001600160a01b038116610bfd57600080fd5b306001600160a01b03821603610c1257600080fd5b336000908152609e6020526040812054609d54909190610c339083906111e9565b336000908152609e60205260408082208290556001600160a01b0388168252902054909150610c6290836111dd565b6001600160a01b0386166000818152609e602052604090819020929092559051339060008051602061191283398151915290610ca19085815260200190565b60405180910390a36001935050505b50919050565b336000908152609f602090815260408083206001600160a01b038616845290915281205480831015610cf157610cec81846111be565b610cf4565b60005b336000818152609f602090815260408083206001600160a01b038a1680855290835292819020859055519384529092600080516020611932833981519152910160405180910390a35060019392505050565b6000826001600160a01b038116610d5c57600080fd5b306001600160a01b03821603610d7157600080fd5b6000610d88609d54856111d190919063ffffffff16565b336000908152609e6020526040902054909150610da590826111be565b336000908152609e6020526040808220929092556001600160a01b03871681522054610dd190826111dd565b6001600160a01b0386166000818152609e602052604090819020929092559051339060008051602061191283398151915290610e109088815260200190565b60405180910390a3506001949350505050565b6000610e316009600a61186e565b610e3f906302faf08061187a565b610e4b906000196118a7565b610e57906000196118bb565b905090565b600054610100900460ff1680610e715750303b155b80610e7f575060005460ff16155b610e9b5760405162461bcd60e51b81526004016105d090611617565b6000805461ffff19811661010117909155604080518082018252600b81526a20a22224a9902a27a5a2a760a91b6020808301919091528251808401909352600383526210511560ea1b9083015261010090920460ff1691610efd916009610591565b610f068261121e565b609b805461ffff60a01b19169055610f206009600a61186e565b610f2e906302faf08061187a565b609c55610f3d6009600a61186e565b610f4b906302faf08061187a565b610f57906000196118a7565b610f63906000196118bb565b6001600160a01b0383166000908152609e6020526040902055609c54610f8f906109ed6009600a61186e565b609d55609c546040519081526001600160a01b038316906000906000805160206119128339815191529060200160405180910390a3600080549115156101000261ff001990921691909117905550565b83421115610fec57600080fd5b6001600160a01b03878116600081815260a0602081815260408084205481517f6e71edae12b1b97f4d1f60370fef10105fa2faae0126114a169c64845d6126c99381019390935290820194909452938a16606085015260808401899052830182905260c08301879052909160e001604051602081830303815290604052805190602001209050600061107c610777565b60405161190160f01b602082015260228101919091526042810183905260620160408051601f1981840301815282825280516020918201206000845290830180835281905260ff8916918301919091526060820187905260808201869052915060019060a0016020604051602081039080840390855afa158015611104573d6000803e3d6000fd5b505050602060405103516001600160a01b03168a6001600160a01b03161461112b57600080fd5b6111368360016111dd565b6001600160a01b038b8116600081815260a06020908152604080832095909555609f8152848220938e16808352938152908490208c905592518b815291929091600080516020611932833981519152910160405180910390a350505050505050505050565b6068546001600160a01b031633146111b257600080fd5b6111bb816112a2565b50565b60006111ca82846118bb565b9392505050565b60006111ca828461187a565b60006111ca82846118ce565b60006111ca82846118e1565b6000600160ff1b820161120757600080fd5b60008212611215578161058b565b61058b826118f5565b600054610100900460ff16806112335750303b155b80611241575060005460ff16155b61125d5760405162461bcd60e51b81526004016105d090611617565b60008054606880546001600160a01b0319166001600160a01b03949094169390931790925561ffff1982166101009283900460ff161515909202919091176001179055565b6001600160a01b0381166112b557600080fd5b6068546040516001600160a01b038084169216907f8be0079c531659141344cd1fd0a4f28419497f9722a3daafe3b4186f6b6457e090600090a3606880546001600160a01b0319166001600160a01b0392909216919091179055565b600060208083528351808285015260005b8181101561133e57858101830151858201604001528201611322565b506000604082860101526040601f19601f8301168501019250505092915050565b80356001600160a01b038116811461137657600080fd5b919050565b6000806040838503121561138e57600080fd5b6113978361135f565b946020939093013593505050565b634e487b7160e01b600052604160045260246000fd5b600082601f8301126113cc57600080fd5b813567ffffffffffffffff808211156113e7576113e76113a5565b604051601f8301601f19908116603f0116810190828211818310171561140f5761140f6113a5565b8160405283815286602085880101111561142857600080fd5b836020870160208301376000602085830101528094505050505092915050565b803560ff8116811461137657600080fd5b60008060006060848603121561146e57600080fd5b833567ffffffffffffffff8082111561148657600080fd5b611492878388016113bb565b945060208601359150808211156114a857600080fd5b506114b5868287016113bb565b9250506114c460408501611448565b90509250925092565b6000602082840312156114df57600080fd5b6111ca8261135f565b6000806000606084860312156114fd57600080fd5b6115068461135f565b92506115146020850161135f565b9150604084013590509250925092565b6000806040838503121561153757600080fd5b50508035926020909101359150565b6000806040838503121561155957600080fd5b6115628361135f565b91506115706020840161135f565b90509250929050565b600080600080600080600060e0888a03121561159457600080fd5b61159d8861135f565b96506115ab6020890161135f565b955060408801359450606088013593506115c760808901611448565b925060a0880135915060c0880135905092959891949750929550565b600181811c908216806115f757607f821691505b602082108103610cb057634e487b7160e01b600052602260045260246000fd5b6020808252602e908201527f436f6e747261637420696e7374616e63652068617320616c726561647920626560408201526d195b881a5b9a5d1a585b1a5e995960921b606082015260800190565b601f8211156116af57600081815260208120601f850160051c8101602086101561168c5750805b601f850160051c820191505b818110156116ab57828155600101611698565b5050505b505050565b815167ffffffffffffffff8111156116ce576116ce6113a5565b6116e2816116dc84546115e3565b84611665565b602080601f83116001811461171757600084156116ff5750858301515b600019600386901b1c1916600185901b1785556116ab565b600085815260208120601f198616915b8281101561174657888601518255948401946001909101908401611727565b50858210156117645787850151600019600388901b60f8161c191681555b5050505050600190811b01905550565b634e487b7160e01b600052601160045260246000fd5b600181815b808511156117c55781600019048211156117ab576117ab611774565b808516156117b857918102915b93841c939080029061178f565b509250929050565b6000826117dc5750600161058b565b816117e95750600061058b565b81600181146117ff576002811461180957611825565b600191505061058b565b60ff84111561181a5761181a611774565b50506001821b61058b565b5060208310610133831016604e8410600b8410161715611848575081810a61058b565b611852838361178a565b806000190482111561186657611866611774565b029392505050565b60006111ca83836117cd565b808202811582820484141761058b5761058b611774565b634e487b7160e01b600052601260045260246000fd5b6000826118b6576118b6611891565b500690565b8181038181111561058b5761058b611774565b8082018082111561058b5761058b611774565b6000826118f0576118f0611891565b500490565b6000600160ff1b820161190a5761190a611774565b506000039056feddf252ad1be2c89b69c2b068fc378daa952ba7f163c4a11628f55a4df523b3ef8c5be1e5ebec7d5bd14f71427d1e84f3dd0314c0f7b2291e5b200ac8c7c3b925a2646970667358221220167dbbea8719da5c8afa437199bbd17989e224ab0f8d0903d013bc0cc31eef5264736f6c63430008110033",
    "linkReferences": {}
  },
  "methodIdentifiers": {
    "DOMAIN_SEPARATOR()": "3644e515",
    "EIP712_DOMAIN()": "e1b11da4",
    "EIP712_REVISION()": "78160376",
    "PERMIT_TYPEHASH()": "30adf81f",
    "allowance(address,address)": "dd62ed3e",
    "approve(address,uint256)": "095ea7b3",
    "balanceOf(address)": "70a08231",
    "decimals()": "313ce567",
    "decreaseAllowance(address,uint256)": "a457c2d7",
    "increaseAllowance(address,uint256)": "39509351",
    "initialize(address)": "c4d66de8",
    "initialize(string,string,uint8)": "1624f6c6",
    "isOwner()": "8f32d59b",
    "monetaryPolicy()": "8e27d7d7",
    "name()": "06fdde03",
    "nonces(address)": "7ecebe00",
    "owner()": "8da5cb5b",
    "permit(address,address,uint256,uint256,uint8,bytes32,bytes32)": "d505accf",
    "rebase(uint256,int256)": "7a43e23f",
    "renounceOwnership()": "715018a6",
    "scaledBalanceOf(address)": "1da24f3e",
    "scaledTotalSupply()": "b1bf962d",
    "setMonetaryPolicy(address)": "8b5a6a08",
    "symbol()": "95d89b41",
    "totalSupply()": "18160ddd",
    "transfer(address,uint256)": "a9059cbb",
    "transferAll(address)": "a3a7e7f3",
    "transferAllFrom(address,address)": "84d4b410",
    "transferFrom(address,address,uint256)": "23b872dd",
    "transferOwnership(address)": "f2fde38b"
  },
  "id": 16
}