{
  "abi": [
    {
      "inputs": [
        {
          "internalType": "address",
          "name": "tokenA",
          "type": "address"
        },
        {
          "internalType": "address",
          "name": "tokenB",
          "type": "address"
        },
        {
          "internalType": "uint256",
          "name": "tokenAmount",
          "type": "uint256"
        },
        {
          "internalType": "uint256",
          "name": "tokenBAmount",
          "type": "uint256"
        }
      ],
      "name": "addLiquidity",
      "outputs": [],
      "stateMutability": "nonpayable",
      "type": "function"
    },
    {
      "inputs": [
        {
          "internalType": "address",
          "name": "tokenA",
          "type": "address"
        },
        {
          "internalType": "address",
          "name": "tokenB",
          "type": "address"
        }
      ],
      "name": "createPair",
      "outputs": [
        {
          "internalType": "address",
          "name": "pair",
          "type": "address"
        }
      ],
      "stateMutability": "nonpayable",
      "type": "function"
    }
  ],
  "bytecode": {
    "object": "0x60806040526000805473b4fbf271143f4fbf7b91a5ded31805e42b2208d66001600160a01b0319918216811790925560018054735c69bee701ef814a2b6a3edd4b1652cb9cc5aa6f908316811790915560028054831690931790925560038054909116909117905534801561007357600080fd5b5061050e806100836000396000f3fe608060405234801561001057600080fd5b50600436106100365760003560e01c8063c9c653961461003b578063cf6c62ea1461006a575b600080fd5b61004e6100493660046103c5565b61007f565b6040516001600160a01b03909116815260200160405180910390f35b61007d6100783660046103fe565b6100ff565b005b6003546040516364e329cb60e11b81526001600160a01b0384811660048301528381166024830152600092169063c9c65396906044016020604051808303816000875af11580156100d4573d6000803e3d6000fd5b505050506040513d601f19601f820116820180604052508101906100f89190610444565b9392505050565b6040516323b872dd60e01b8152336004820152306024820152604481018390526001600160a01b038516906323b872dd906064016020604051808303816000875af1158015610152573d6000803e3d6000fd5b505050506040513d601f19601f820116820180604052508101906101769190610461565b506040516323b872dd60e01b8152336004820152306024820152604481018290526001600160a01b038416906323b872dd906064016020604051808303816000875af11580156101ca573d6000803e3d6000fd5b505050506040513d601f19601f820116820180604052508101906101ee9190610461565b5060005460405163095ea7b360e01b81526001600160a01b039182166004820152602481018490529085169063095ea7b3906044016020604051808303816000875af1158015610242573d6000803e3d6000fd5b505050506040513d601f19601f820116820180604052508101906102669190610461565b5060005460405163095ea7b360e01b81526001600160a01b039182166004820152602481018390529084169063095ea7b3906044016020604051808303816000875af11580156102ba573d6000803e3d6000fd5b505050506040513d601f19601f820116820180604052508101906102de9190610461565b506002546001600160a01b031663e8e3370085858585600080336103044261012c610483565b60405160e08a901b6001600160e01b03191681526001600160a01b039889166004820152968816602488015260448701959095526064860193909352608485019190915260a484015290921660c482015260e4810191909152610104016060604051808303816000875af1158015610380573d6000803e3d6000fd5b505050506040513d601f19601f820116820180604052508101906103a491906104aa565b50505050505050565b6001600160a01b03811681146103c257600080fd5b50565b600080604083850312156103d857600080fd5b82356103e3816103ad565b915060208301356103f3816103ad565b809150509250929050565b6000806000806080858703121561041457600080fd5b843561041f816103ad565b9350602085013561042f816103ad565b93969395505050506040820135916060013590565b60006020828403121561045657600080fd5b81516100f8816103ad565b60006020828403121561047357600080fd5b815180151581146100f857600080fd5b808201808211156104a457634e487b7160e01b600052601160045260246000fd5b92915050565b6000806000606084860312156104bf57600080fd5b835192506020840151915060408401519050925092509256fea2646970667358221220fabacaae81e7209fc4b2f662227156b86126a1c6e69438079f08744945d6d63164736f6c63430008110033",
    "linkReferences": {}
  },
  "methodIdentifiers": {
    "addLiquidity(address,address,uint256,uint256)": "cf6c62ea",
    "createPair(address,address)": "c9c65396"
  },
  "id": 15
}